{
  "_format": "hh-sol-artifact-1",
  "contractName": "MockV3Aggregator",
  "sourceName": "contracts/test/MockV3Aggregator.sol",
  "abi": [
    {
      "inputs": [
        {
          "internalType": "int256",
          "name": "initialPrice",
          "type": "int256"
        }
      ],
      "stateMutability": "nonpayable",
      "type": "constructor"
    },
    {
      "inputs": [],
      "name": "decimals",
      "outputs": [
        {
          "internalType": "uint8",
          "name": "",
          "type": "uint8"
        }
      ],
      "stateMutability": "view",
      "type": "function"
    },
    {
      "inputs": [],
      "name": "latestRoundData",
      "outputs": [
        {
          "internalType": "uint80",
          "name": "",
          "type": "uint80"
        },
        {
          "internalType": "int256",
          "name": "",
          "type": "int256"
        },
        {
          "internalType": "uint256",
          "name": "",
          "type": "uint256"
        },
        {
          "internalType": "uint256",
          "name": "",
          "type": "uint256"
        },
        {
          "internalType": "uint80",
          "name": "",
          "type": "uint80"
        }
      ],
      "stateMutability": "view",
      "type": "function"
    },
    {
      "inputs": [
        {
          "internalType": "int256",
          "name": "newPrice",
          "type": "int256"
        }
      ],
      "name": "updateAnswer",
      "outputs": [],
      "stateMutability": "nonpayable",
      "type": "function"
    }
  ],
  "bytecode": "0x608060405234801561001057600080fd5b5060405161032c38038061032c83398181016040528101906100329190610096565b806000819055506008600160006101000a81548160ff021916908360ff160217905550506100c3565b600080fd5b6000819050919050565b61007381610060565b811461007e57600080fd5b50565b6000815190506100908161006a565b92915050565b6000602082840312156100ac576100ab61005b565b5b60006100ba84828501610081565b91505092915050565b61025a806100d26000396000f3fe608060405234801561001057600080fd5b50600436106100415760003560e01c8063313ce56714610046578063a87a20ce14610064578063feaf968c14610080575b600080fd5b61004e6100a2565b60405161005b9190610101565b60405180910390f35b61007e60048036038101906100799190610157565b6100b9565b005b6100886100c3565b6040516100999594939291906101d1565b60405180910390f35b6000600160009054906101000a900460ff16905090565b8060008190555050565b6000806000806000806000546000806000945094509450945094509091929394565b600060ff82169050919050565b6100fb816100e5565b82525050565b600060208201905061011660008301846100f2565b92915050565b600080fd5b6000819050919050565b61013481610121565b811461013f57600080fd5b50565b6000813590506101518161012b565b92915050565b60006020828403121561016d5761016c61011c565b5b600061017b84828501610142565b91505092915050565b600069ffffffffffffffffffff82169050919050565b6101a381610184565b82525050565b6101b281610121565b82525050565b6000819050919050565b6101cb816101b8565b82525050565b600060a0820190506101e6600083018861019a565b6101f360208301876101a9565b61020060408301866101c2565b61020d60608301856101c2565b61021a608083018461019a565b969550505050505056fea2646970667358221220cacdfc64ebcc8e0a8b6e6a128c7318622eaf58b113ed622be1b76a2ea660901a64736f6c63430008140033",
  "linkReferences": {},
  "deployedLinkReferences": {}
}