{
  "_format": "hh-sol-artifact-1",
  "contractName": "JobManager",
  "sourceName": "contracts/JobManager.sol",
  "abi": [
    {
      "inputs": [
        {
          "internalType": "address",
          "name": "priceFeedAddress",
          "type": "address"
        }
      ],
      "stateMutability": "nonpayable",
      "type": "constructor"
    },
    {
      "inputs": [],
      "name": "ReentrancyGuardReentrantCall",
      "type": "error"
    },
    {
      "anonymous": false,
      "inputs": [
        {
          "indexed": true,
          "internalType": "uint256",
          "name": "jobId",
          "type": "uint256"
        },
        {
          "indexed": true,
          "internalType": "address",
          "name": "provider",
          "type": "address"
        }
      ],
      "name": "JobAccepted",
      "type": "event"
    },
    {
      "anonymous": false,
      "inputs": [
        {
          "indexed": true,
          "internalType": "uint256",
          "name": "jobId",
          "type": "uint256"
        },
        {
          "indexed": true,
          "internalType": "address",
          "name": "requester",
          "type": "address"
        },
        {
          "indexed": true,
          "internalType": "address",
          "name": "provider",
          "type": "address"
        },
        {
          "indexed": false,
          "internalType": "uint256",
          "name": "rewardEth",
          "type": "uint256"
        }
      ],
      "name": "JobApproved",
      "type": "event"
    },
    {
      "anonymous": false,
      "inputs": [
        {
          "indexed": true,
          "internalType": "uint256",
          "name": "jobId",
          "type": "uint256"
        },
        {
          "indexed": true,
          "internalType": "address",
          "name": "requester",
          "type": "address"
        },
        {
          "indexed": false,
          "internalType": "uint256",
          "name": "rewardUsd",
          "type": "uint256"
        },
        {
          "indexed": false,
          "internalType": "uint256",
          "name": "rewardEth",
          "type": "uint256"
        }
      ],
      "name": "JobPosted",
      "type": "event"
    },
    {
      "anonymous": false,
      "inputs": [
        {
          "indexed": true,
          "internalType": "uint256",
          "name": "jobId",
          "type": "uint256"
        },
        {
          "indexed": true,
          "internalType": "address",
          "name": "provider",
          "type": "address"
        },
        {
          "indexed": false,
          "internalType": "string",
          "name": "resultUrl",
          "type": "string"
        }
      ],
      "name": "JobResultSubmitted",
      "type": "event"
    },
    {
      "inputs": [
        {
          "internalType": "uint256",
          "name": "jobId",
          "type": "uint256"
        }
      ],
      "name": "acceptJob",
      "outputs": [],
      "stateMutability": "nonpayable",
      "type": "function"
    },
    {
      "inputs": [
        {
          "internalType": "uint256",
          "name": "jobId",
          "type": "uint256"
        }
      ],
      "name": "approveAndPay",
      "outputs": [],
      "stateMutability": "nonpayable",
      "type": "function"
    },
    {
      "inputs": [
        {
          "internalType": "uint256",
          "name": "usdAmount",
          "type": "uint256"
        }
      ],
      "name": "convertUsdToEth",
      "outputs": [
        {
          "internalType": "uint256",
          "name": "",
          "type": "uint256"
        }
      ],
      "stateMutability": "view",
      "type": "function"
    },
    {
      "inputs": [],
      "name": "getLatestPrice",
      "outputs": [
        {
          "internalType": "int256",
          "name": "",
          "type": "int256"
        }
      ],
      "stateMutability": "view",
      "type": "function"
    },
    {
      "inputs": [],
      "name": "i_priceFeed",
      "outputs": [
        {
          "internalType": "contract AggregatorV3Interface",
          "name": "",
          "type": "address"
        }
      ],
      "stateMutability": "view",
      "type": "function"
    },
    {
      "inputs": [
        {
          "internalType": "string",
          "name": "dataUrl",
          "type": "string"
        },
        {
          "internalType": "uint256",
          "name": "rewardUsd",
          "type": "uint256"
        }
      ],
      "name": "postJob",
      "outputs": [],
      "stateMutability": "payable",
      "type": "function"
    },
    {
      "inputs": [],
      "name": "s_jobCounter",
      "outputs": [
        {
          "internalType": "uint256",
          "name": "",
          "type": "uint256"
        }
      ],
      "stateMutability": "view",
      "type": "function"
    },
    {
      "inputs": [
        {
          "internalType": "uint256",
          "name": "",
          "type": "uint256"
        }
      ],
      "name": "s_jobs",
      "outputs": [
        {
          "internalType": "address payable",
          "name": "requester",
          "type": "address"
        },
        {
          "internalType": "address payable",
          "name": "provider",
          "type": "address"
        },
        {
          "internalType": "string",
          "name": "dataUrl",
          "type": "string"
        },
        {
          "internalType": "string",
          "name": "resultUrl",
          "type": "string"
        },
        {
          "internalType": "uint256",
          "name": "rewardUsd",
          "type": "uint256"
        },
        {
          "internalType": "uint256",
          "name": "rewardEth",
          "type": "uint256"
        },
        {
          "internalType": "enum JobManager.JobStatus",
          "name": "status",
          "type": "uint8"
        }
      ],
      "stateMutability": "view",
      "type": "function"
    },
    {
      "inputs": [
        {
          "internalType": "uint256",
          "name": "jobId",
          "type": "uint256"
        },
        {
          "internalType": "string",
          "name": "resultUrl",
          "type": "string"
        }
      ],
      "name": "submitResult",
      "outputs": [],
      "stateMutability": "nonpayable",
      "type": "function"
    }
  ],
  "bytecode": "0x60a06040523480156200001157600080fd5b5060405162001ea338038062001ea38339818101604052810190620000379190620000e4565b60016000819055508073ffffffffffffffffffffffffffffffffffffffff1660808173ffffffffffffffffffffffffffffffffffffffff16815250505062000116565b600080fd5b600073ffffffffffffffffffffffffffffffffffffffff82169050919050565b6000620000ac826200007f565b9050919050565b620000be816200009f565b8114620000ca57600080fd5b50565b600081519050620000de81620000b3565b92915050565b600060208284031215620000fd57620000fc6200007a565b5b60006200010d84828501620000cd565b91505092915050565b608051611d6a62000139600039600081816109b30152610a4f0152611d6a6000f3fe6080604052600436106100865760003560e01c80638c0dd79a116100595780638c0dd79a1461014b5780638e15f47314610174578063957b89561461019f578063a3053e2a146101ca578063eb9a4e931461020757610086565b8063078970071461008b57806363b2f3c9146100b4578063706280b0146100dd5780638a5ec72b14610108575b600080fd5b34801561009757600080fd5b506100b260048036038101906100ad9190610eb5565b610223565b005b3480156100c057600080fd5b506100db60048036038101906100d69190610eb5565b61050e565b005b3480156100e957600080fd5b506100f2610655565b6040516100ff9190610ef1565b60405180910390f35b34801561011457600080fd5b5061012f600480360381019061012a9190610eb5565b61065b565b6040516101429796959493929190611054565b60405180910390f35b34801561015757600080fd5b50610172600480360381019061016d9190611206565b6107fa565b005b34801561018057600080fd5b506101896109ae565b604051610196919061127b565b60405180910390f35b3480156101ab57600080fd5b506101b4610a4d565b6040516101c191906112f5565b60405180910390f35b3480156101d657600080fd5b506101f160048036038101906101ec9190610eb5565b610a71565b6040516101fe9190610ef1565b60405180910390f35b610221600480360381019061021c9190611310565b610aab565b005b61022b610e1b565b60006001600083815260200190815260200160002090506002600481111561025657610255610fdd565b5b8160060160009054906101000a900460ff16600481111561027a57610279610fdd565b5b146102ba576040517f08c379a00000000000000000000000000000000000000000000000000000000081526004016102b1906113b8565b60405180910390fd5b8060000160009054906101000a900473ffffffffffffffffffffffffffffffffffffffff1673ffffffffffffffffffffffffffffffffffffffff163373ffffffffffffffffffffffffffffffffffffffff161461034c576040517f08c379a000000000000000000000000000000000000000000000000000000000815260040161034390611424565b60405180910390fd5b60038160060160006101000a81548160ff0219169083600481111561037457610373610fdd565b5b021790555060008160050154905060008260010160009054906101000a900473ffffffffffffffffffffffffffffffffffffffff1673ffffffffffffffffffffffffffffffffffffffff16826040516103cc90611475565b60006040518083038185875af1925050503d8060008114610409576040519150601f19603f3d011682016040523d82523d6000602084013e61040e565b606091505b5050905080610452576040517f08c379a0000000000000000000000000000000000000000000000000000000008152600401610449906114d6565b60405180910390fd5b8260010160009054906101000a900473ffffffffffffffffffffffffffffffffffffffff1673ffffffffffffffffffffffffffffffffffffffff168360000160009054906101000a900473ffffffffffffffffffffffffffffffffffffffff1673ffffffffffffffffffffffffffffffffffffffff16857f125035bcd6e47235bdf9cc348c11324950b6869c25fb32efdb925d926078f0b0856040516104f89190610ef1565b60405180910390a450505061050b610e61565b50565b60006001600083815260200190815260200160002090506000600481111561053957610538610fdd565b5b8160060160009054906101000a900460ff16600481111561055d5761055c610fdd565b5b1461059d576040517f08c379a000000000000000000000000000000000000000000000000000000000815260040161059490611542565b60405180910390fd5b338160010160006101000a81548173ffffffffffffffffffffffffffffffffffffffff021916908373ffffffffffffffffffffffffffffffffffffffff16021790555060018160060160006101000a81548160ff0219169083600481111561060857610607610fdd565b5b02179055503373ffffffffffffffffffffffffffffffffffffffff16827f4426e4a90a9570c8f678a263b11785eaaade8b79d76d18c43d4d8e00062e4f8360405160405180910390a35050565b60025481565b60016020528060005260406000206000915090508060000160009054906101000a900473ffffffffffffffffffffffffffffffffffffffff16908060010160009054906101000a900473ffffffffffffffffffffffffffffffffffffffff16908060020180546106ca90611591565b80601f01602080910402602001604051908101604052809291908181526020018280546106f690611591565b80156107435780601f1061071857610100808354040283529160200191610743565b820191906000526020600020905b81548152906001019060200180831161072657829003601f168201915b50505050509080600301805461075890611591565b80601f016020809104026020016040519081016040528092919081815260200182805461078490611591565b80156107d15780601f106107a6576101008083540402835291602001916107d1565b820191906000526020600020905b8154815290600101906020018083116107b457829003601f168201915b5050505050908060040154908060050154908060060160009054906101000a900460ff16905087565b60006001600084815260200190815260200160002090506001600481111561082557610824610fdd565b5b8160060160009054906101000a900460ff16600481111561084957610848610fdd565b5b14610889576040517f08c379a00000000000000000000000000000000000000000000000000000000081526004016108809061160e565b60405180910390fd5b8060010160009054906101000a900473ffffffffffffffffffffffffffffffffffffffff1673ffffffffffffffffffffffffffffffffffffffff163373ffffffffffffffffffffffffffffffffffffffff161461091b576040517f08c379a0000000000000000000000000000000000000000000000000000000008152600401610912906116a0565b60405180910390fd5b8181600301908161092c9190611862565b5060028160060160006101000a81548160ff0219169083600481111561095557610954610fdd565b5b02179055503373ffffffffffffffffffffffffffffffffffffffff16837f9305583ff3d114df3e34c22dbfbaded0901fc58b7d6b03b361b2290c99f7e439846040516109a19190611934565b60405180910390a3505050565b6000807f000000000000000000000000000000000000000000000000000000000000000073ffffffffffffffffffffffffffffffffffffffff1663feaf968c6040518163ffffffff1660e01b815260040160a060405180830381865afa158015610a1c573d6000803e3d6000fd5b505050506040513d601f19601f82011682018060405250810190610a4091906119d9565b5050509150508091505090565b7f000000000000000000000000000000000000000000000000000000000000000081565b600080610a7c6109ae565b9050600081670de0b6b3a764000085610a959190611a83565b610a9f9190611af4565b90508092505050919050565b610ab3610e1b565b60008111610af6576040517f08c379a0000000000000000000000000000000000000000000000000000000008152600401610aed90611b71565b60405180910390fd5b6000610b0182610a71565b905080341015610b46576040517f08c379a0000000000000000000000000000000000000000000000000000000008152600401610b3d90611c03565b60405180910390fd5b600060025490506040518060e001604052803373ffffffffffffffffffffffffffffffffffffffff168152602001600073ffffffffffffffffffffffffffffffffffffffff16815260200185815260200160405180602001604052806000815250815260200184815260200134815260200160006004811115610bcc57610bcb610fdd565b5b8152506001600083815260200190815260200160002060008201518160000160006101000a81548173ffffffffffffffffffffffffffffffffffffffff021916908373ffffffffffffffffffffffffffffffffffffffff16021790555060208201518160010160006101000a81548173ffffffffffffffffffffffffffffffffffffffff021916908373ffffffffffffffffffffffffffffffffffffffff1602179055506040820151816002019081610c859190611862565b506060820151816003019081610c9b9190611862565b506080820151816004015560a0820151816005015560c08201518160060160006101000a81548160ff02191690836004811115610cdb57610cda610fdd565b5b021790555090505060026000815480929190610cf690611c23565b91905055503373ffffffffffffffffffffffffffffffffffffffff16817fc395422cf0471e0b91fe523372800edb102f71150f46497121d9b80c3812534d8534604051610d44929190611c6b565b60405180910390a381341115610e0d5760003373ffffffffffffffffffffffffffffffffffffffff168334610d799190611c94565b604051610d8590611475565b60006040518083038185875af1925050503d8060008114610dc2576040519150601f19603f3d011682016040523d82523d6000602084013e610dc7565b606091505b5050905080610e0b576040517f08c379a0000000000000000000000000000000000000000000000000000000008152600401610e0290611d14565b60405180910390fd5b505b5050610e17610e61565b5050565b600260005403610e57576040517f3ee5aeb500000000000000000000000000000000000000000000000000000000815260040160405180910390fd5b6002600081905550565b6001600081905550565b6000604051905090565b600080fd5b600080fd5b6000819050919050565b610e9281610e7f565b8114610e9d57600080fd5b50565b600081359050610eaf81610e89565b92915050565b600060208284031215610ecb57610eca610e75565b5b6000610ed984828501610ea0565b91505092915050565b610eeb81610e7f565b82525050565b6000602082019050610f066000830184610ee2565b92915050565b600073ffffffffffffffffffffffffffffffffffffffff82169050919050565b6000610f3782610f0c565b9050919050565b610f4781610f2c565b82525050565b600081519050919050565b600082825260208201905092915050565b60005b83811015610f87578082015181840152602081019050610f6c565b60008484015250505050565b6000601f19601f8301169050919050565b6000610faf82610f4d565b610fb98185610f58565b9350610fc9818560208601610f69565b610fd281610f93565b840191505092915050565b7f4e487b7100000000000000000000000000000000000000000000000000000000600052602160045260246000fd5b6005811061101d5761101c610fdd565b5b50565b600081905061102e8261100c565b919050565b600061103e82611020565b9050919050565b61104e81611033565b82525050565b600060e082019050611069600083018a610f3e565b6110766020830189610f3e565b81810360408301526110888188610fa4565b9050818103606083015261109c8187610fa4565b90506110ab6080830186610ee2565b6110b860a0830185610ee2565b6110c560c0830184611045565b98975050505050505050565b600080fd5b600080fd5b7f4e487b7100000000000000000000000000000000000000000000000000000000600052604160045260246000fd5b61111382610f93565b810181811067ffffffffffffffff82111715611132576111316110db565b5b80604052505050565b6000611145610e6b565b9050611151828261110a565b919050565b600067ffffffffffffffff821115611171576111706110db565b5b61117a82610f93565b9050602081019050919050565b82818337600083830152505050565b60006111a96111a484611156565b61113b565b9050828152602081018484840111156111c5576111c46110d6565b5b6111d0848285611187565b509392505050565b600082601f8301126111ed576111ec6110d1565b5b81356111fd848260208601611196565b91505092915050565b6000806040838503121561121d5761121c610e75565b5b600061122b85828601610ea0565b925050602083013567ffffffffffffffff81111561124c5761124b610e7a565b5b611258858286016111d8565b9150509250929050565b6000819050919050565b61127581611262565b82525050565b6000602082019050611290600083018461126c565b92915050565b6000819050919050565b60006112bb6112b66112b184610f0c565b611296565b610f0c565b9050919050565b60006112cd826112a0565b9050919050565b60006112df826112c2565b9050919050565b6112ef816112d4565b82525050565b600060208201905061130a60008301846112e6565b92915050565b6000806040838503121561132757611326610e75565b5b600083013567ffffffffffffffff81111561134557611344610e7a565b5b611351858286016111d8565b925050602061136285828601610ea0565b9150509250929050565b7f4a6f62206e6f742070656e64696e6720617070726f76616c0000000000000000600082015250565b60006113a2601883610f58565b91506113ad8261136c565b602082019050919050565b600060208201905081810360008301526113d181611395565b9050919050565b7f4f6e6c79207265717565737465722063616e20617070726f7665000000000000600082015250565b600061140e601a83610f58565b9150611419826113d8565b602082019050919050565b6000602082019050818103600083015261143d81611401565b9050919050565b600081905092915050565b50565b600061145f600083611444565b915061146a8261144f565b600082019050919050565b600061148082611452565b9150819050919050565b7f5061796d656e74206661696c6564000000000000000000000000000000000000600082015250565b60006114c0600e83610f58565b91506114cb8261148a565b602082019050919050565b600060208201905081810360008301526114ef816114b3565b9050919050565b7f4a6f62206973206e6f74206f70656e0000000000000000000000000000000000600082015250565b600061152c600f83610f58565b9150611537826114f6565b602082019050919050565b6000602082019050818103600083015261155b8161151f565b9050919050565b7f4e487b7100000000000000000000000000000000000000000000000000000000600052602260045260246000fd5b600060028204905060018216806115a957607f821691505b6020821081036115bc576115bb611562565b5b50919050565b7f4a6f62206e6f7420696e2070726f677265737300000000000000000000000000600082015250565b60006115f8601383610f58565b9150611603826115c2565b602082019050919050565b60006020820190508181036000830152611627816115eb565b9050919050565b7f4f6e6c792061737369676e65642070726f76696465722063616e207375626d6960008201527f7400000000000000000000000000000000000000000000000000000000000000602082015250565b600061168a602183610f58565b91506116958261162e565b604082019050919050565b600060208201905081810360008301526116b98161167d565b9050919050565b60008190508160005260206000209050919050565b60006020601f8301049050919050565b600082821b905092915050565b6000600883026117227fffffffffffffffffffffffffffffffffffffffffffffffffffffffffffffffff826116e5565b61172c86836116e5565b95508019841693508086168417925050509392505050565b600061175f61175a61175584610e7f565b611296565b610e7f565b9050919050565b6000819050919050565b61177983611744565b61178d61178582611766565b8484546116f2565b825550505050565b600090565b6117a2611795565b6117ad818484611770565b505050565b5b818110156117d1576117c660008261179a565b6001810190506117b3565b5050565b601f821115611816576117e7816116c0565b6117f0846116d5565b810160208510156117ff578190505b61181361180b856116d5565b8301826117b2565b50505b505050565b600082821c905092915050565b60006118396000198460080261181b565b1980831691505092915050565b60006118528383611828565b9150826002028217905092915050565b61186b82610f4d565b67ffffffffffffffff811115611884576118836110db565b5b61188e8254611591565b6118998282856117d5565b600060209050601f8311600181146118cc57600084156118ba578287015190505b6118c48582611846565b86555061192c565b601f1984166118da866116c0565b60005b82811015611902578489015182556001820191506020850194506020810190506118dd565b8683101561191f578489015161191b601f891682611828565b8355505b6001600288020188555050505b505050505050565b6000602082019050818103600083015261194e8184610fa4565b905092915050565b600069ffffffffffffffffffff82169050919050565b61197581611956565b811461198057600080fd5b50565b6000815190506119928161196c565b92915050565b6119a181611262565b81146119ac57600080fd5b50565b6000815190506119be81611998565b92915050565b6000815190506119d381610e89565b92915050565b600080600080600060a086880312156119f5576119f4610e75565b5b6000611a0388828901611983565b9550506020611a14888289016119af565b9450506040611a25888289016119c4565b9350506060611a36888289016119c4565b9250506080611a4788828901611983565b9150509295509295909350565b7f4e487b7100000000000000000000000000000000000000000000000000000000600052601160045260246000fd5b6000611a8e82610e7f565b9150611a9983610e7f565b9250828202611aa781610e7f565b91508282048414831517611abe57611abd611a54565b5b5092915050565b7f4e487b7100000000000000000000000000000000000000000000000000000000600052601260045260246000fd5b6000611aff82610e7f565b9150611b0a83610e7f565b925082611b1a57611b19611ac5565b5b828204905092915050565b7f526577617264206d7573742062652067726561746572207468616e207a65726f600082015250565b6000611b5b602083610f58565b9150611b6682611b25565b602082019050919050565b60006020820190508181036000830152611b8a81611b4e565b9050919050565b7f496e73756666696369656e74204554482073656e7420666f722074686973205560008201527f53442076616c7565000000000000000000000000000000000000000000000000602082015250565b6000611bed602883610f58565b9150611bf882611b91565b604082019050919050565b60006020820190508181036000830152611c1c81611be0565b9050919050565b6000611c2e82610e7f565b91507fffffffffffffffffffffffffffffffffffffffffffffffffffffffffffffffff8203611c6057611c5f611a54565b5b600182019050919050565b6000604082019050611c806000830185610ee2565b611c8d6020830184610ee2565b9392505050565b6000611c9f82610e7f565b9150611caa83610e7f565b9250828203905081811115611cc257611cc1611a54565b5b92915050565b7f4661696c656420746f2073656e64206261636b20657863657373204554480000600082015250565b6000611cfe601e83610f58565b9150611d0982611cc8565b602082019050919050565b60006020820190508181036000830152611d2d81611cf1565b905091905056fea26469706673582212208ffac19b6c036309980c73dd5d3ab6e58380474e6a01ff47cd915c896c0149b564736f6c63430008140033",
  "linkReferences": {},
  "deployedLinkReferences": {}
}